{
  "contractName": "TheShmurfs",
  "abi": [
    {
      "inputs": [],
      "stateMutability": "nonpayable",
      "type": "constructor"
    },
    {
      "inputs": [],
      "name": "ApprovalCallerNotOwnerNorApproved",
      "type": "error"
    },
    {
      "inputs": [],
      "name": "ApprovalQueryForNonexistentToken",
      "type": "error"
    },
    {
      "inputs": [],
      "name": "ApprovalToCurrentOwner",
      "type": "error"
    },
    {
      "inputs": [],
      "name": "ApproveToCaller",
      "type": "error"
    },
    {
      "inputs": [],
      "name": "BalanceQueryForZeroAddress",
      "type": "error"
    },
    {
      "inputs": [],
      "name": "MintToZeroAddress",
      "type": "error"
    },
    {
      "inputs": [],
      "name": "MintZeroQuantity",
      "type": "error"
    },
    {
      "inputs": [],
      "name": "OwnerQueryForNonexistentToken",
      "type": "error"
    },
    {
      "inputs": [],
      "name": "TransferCallerNotOwnerNorApproved",
      "type": "error"
    },
    {
      "inputs": [],
      "name": "TransferFromIncorrectOwner",
      "type": "error"
    },
    {
      "inputs": [],
      "name": "TransferToNonERC721ReceiverImplementer",
      "type": "error"
    },
    {
      "inputs": [],
      "name": "TransferToZeroAddress",
      "type": "error"
    },
    {
      "inputs": [],
      "name": "URIQueryForNonexistentToken",
      "type": "error"
    },
    {
      "anonymous": false,
      "inputs": [
        {
          "indexed": true,
          "internalType": "address",
          "name": "owner",
          "type": "address"
        },
        {
          "indexed": true,
          "internalType": "address",
          "name": "approved",
          "type": "address"
        },
        {
          "indexed": true,
          "internalType": "uint256",
          "name": "tokenId",
          "type": "uint256"
        }
      ],
      "name": "Approval",
      "type": "event"
    },
    {
      "anonymous": false,
      "inputs": [
        {
          "indexed": true,
          "internalType": "address",
          "name": "owner",
          "type": "address"
        },
        {
          "indexed": true,
          "internalType": "address",
          "name": "operator",
          "type": "address"
        },
        {
          "indexed": false,
          "internalType": "bool",
          "name": "approved",
          "type": "bool"
        }
      ],
      "name": "ApprovalForAll",
      "type": "event"
    },
    {
      "anonymous": false,
      "inputs": [
        {
          "indexed": true,
          "internalType": "address",
          "name": "previousOwner",
          "type": "address"
        },
        {
          "indexed": true,
          "internalType": "address",
          "name": "newOwner",
          "type": "address"
        }
      ],
      "name": "OwnershipTransferred",
      "type": "event"
    },
    {
      "anonymous": false,
      "inputs": [
        {
          "indexed": true,
          "internalType": "address",
          "name": "from",
          "type": "address"
        },
        {
          "indexed": true,
          "internalType": "address",
          "name": "to",
          "type": "address"
        },
        {
          "indexed": true,
          "internalType": "uint256",
          "name": "tokenId",
          "type": "uint256"
        }
      ],
      "name": "Transfer",
      "type": "event"
    },
    {
      "inputs": [],
      "name": "MAX_SUPPLY",
      "outputs": [
        {
          "internalType": "uint256",
          "name": "",
          "type": "uint256"
        }
      ],
      "stateMutability": "view",
      "type": "function"
    },
    {
      "inputs": [
        {
          "internalType": "address",
          "name": "to",
          "type": "address"
        },
        {
          "internalType": "uint256",
          "name": "tokenId",
          "type": "uint256"
        }
      ],
      "name": "approve",
      "outputs": [],
      "stateMutability": "nonpayable",
      "type": "function"
    },
    {
      "inputs": [
        {
          "internalType": "address",
          "name": "owner",
          "type": "address"
        }
      ],
      "name": "balanceOf",
      "outputs": [
        {
          "internalType": "uint256",
          "name": "",
          "type": "uint256"
        }
      ],
      "stateMutability": "view",
      "type": "function"
    },
    {
      "inputs": [
        {
          "internalType": "uint256",
          "name": "tokenId",
          "type": "uint256"
        }
      ],
      "name": "getApproved",
      "outputs": [
        {
          "internalType": "address",
          "name": "",
          "type": "address"
        }
      ],
      "stateMutability": "view",
      "type": "function"
    },
    {
      "inputs": [
        {
          "internalType": "address",
          "name": "owner",
          "type": "address"
        },
        {
          "internalType": "address",
          "name": "operator",
          "type": "address"
        }
      ],
      "name": "isApprovedForAll",
      "outputs": [
        {
          "internalType": "bool",
          "name": "",
          "type": "bool"
        }
      ],
      "stateMutability": "view",
      "type": "function"
    },
    {
      "inputs": [],
      "name": "name",
      "outputs": [
        {
          "internalType": "string",
          "name": "",
          "type": "string"
        }
      ],
      "stateMutability": "view",
      "type": "function"
    },
    {
      "inputs": [],
      "name": "owner",
      "outputs": [
        {
          "internalType": "address",
          "name": "",
          "type": "address"
        }
      ],
      "stateMutability": "view",
      "type": "function"
    },
    {
      "inputs": [
        {
          "internalType": "uint256",
          "name": "tokenId",
          "type": "uint256"
        }
      ],
      "name": "ownerOf",
      "outputs": [
        {
          "internalType": "address",
          "name": "",
          "type": "address"
        }
      ],
      "stateMutability": "view",
      "type": "function"
    },
    {
      "inputs": [],
      "name": "renounceOwnership",
      "outputs": [],
      "stateMutability": "nonpayable",
      "type": "function"
    },
    {
      "inputs": [
        {
          "internalType": "address",
          "name": "from",
          "type": "address"
        },
        {
          "internalType": "address",
          "name": "to",
          "type": "address"
        },
        {
          "internalType": "uint256",
          "name": "tokenId",
          "type": "uint256"
        }
      ],
      "name": "safeTransferFrom",
      "outputs": [],
      "stateMutability": "nonpayable",
      "type": "function"
    },
    {
      "inputs": [
        {
          "internalType": "address",
          "name": "from",
          "type": "address"
        },
        {
          "internalType": "address",
          "name": "to",
          "type": "address"
        },
        {
          "internalType": "uint256",
          "name": "tokenId",
          "type": "uint256"
        },
        {
          "internalType": "bytes",
          "name": "_data",
          "type": "bytes"
        }
      ],
      "name": "safeTransferFrom",
      "outputs": [],
      "stateMutability": "nonpayable",
      "type": "function"
    },
    {
      "inputs": [],
      "name": "sellingStep",
      "outputs": [
        {
          "internalType": "enum TheShmurfs.Step",
          "name": "",
          "type": "uint8"
        }
      ],
      "stateMutability": "view",
      "type": "function"
    },
    {
      "inputs": [
        {
          "internalType": "address",
          "name": "operator",
          "type": "address"
        },
        {
          "internalType": "bool",
          "name": "approved",
          "type": "bool"
        }
      ],
      "name": "setApprovalForAll",
      "outputs": [],
      "stateMutability": "nonpayable",
      "type": "function"
    },
    {
      "inputs": [
        {
          "internalType": "bytes4",
          "name": "interfaceId",
          "type": "bytes4"
        }
      ],
      "name": "supportsInterface",
      "outputs": [
        {
          "internalType": "bool",
          "name": "",
          "type": "bool"
        }
      ],
      "stateMutability": "view",
      "type": "function"
    },
    {
      "inputs": [],
      "name": "symbol",
      "outputs": [
        {
          "internalType": "string",
          "name": "",
          "type": "string"
        }
      ],
      "stateMutability": "view",
      "type": "function"
    },
    {
      "inputs": [],
      "name": "totalSupply",
      "outputs": [
        {
          "internalType": "uint256",
          "name": "",
          "type": "uint256"
        }
      ],
      "stateMutability": "view",
      "type": "function"
    },
    {
      "inputs": [
        {
          "internalType": "address",
          "name": "from",
          "type": "address"
        },
        {
          "internalType": "address",
          "name": "to",
          "type": "address"
        },
        {
          "internalType": "uint256",
          "name": "tokenId",
          "type": "uint256"
        }
      ],
      "name": "transferFrom",
      "outputs": [],
      "stateMutability": "nonpayable",
      "type": "function"
    },
    {
      "inputs": [
        {
          "internalType": "address",
          "name": "newOwner",
          "type": "address"
        }
      ],
      "name": "transferOwnership",
      "outputs": [],
      "stateMutability": "nonpayable",
      "type": "function"
    },
    {
      "inputs": [
        {
          "internalType": "uint8",
          "name": "quantity",
          "type": "uint8"
        }
      ],
      "name": "whitelistMint",
      "outputs": [],
      "stateMutability": "payable",
      "type": "function"
    },
    {
      "inputs": [
        {
          "internalType": "uint8",
          "name": "quantity",
          "type": "uint8"
        }
      ],
      "name": "publicSaleMint",
      "outputs": [],
      "stateMutability": "payable",
      "type": "function"
    },
    {
      "inputs": [],
      "name": "setStepAsInactive",
      "outputs": [],
      "stateMutability": "nonpayable",
      "type": "function"
    },
    {
      "inputs": [],
      "name": "setStepAsWhitelistSale",
      "outputs": [],
      "stateMutability": "nonpayable",
      "type": "function"
    },
    {
      "inputs": [],
      "name": "setStepAsPublicSale",
      "outputs": [],
      "stateMutability": "nonpayable",
      "type": "function"
    },
    {
      "inputs": [
        {
          "internalType": "uint256",
          "name": "max_",
          "type": "uint256"
        }
      ],
      "name": "setMaxSupply",
      "outputs": [],
      "stateMutability": "nonpayable",
      "type": "function"
    },
    {
      "inputs": [
        {
          "internalType": "string",
          "name": "_imageURL",
          "type": "string"
        }
      ],
      "name": "setUnrevealedImageURL",
      "outputs": [],
      "stateMutability": "nonpayable",
      "type": "function"
    },
    {
      "inputs": [
        {
          "internalType": "bool",
          "name": "_reveal",
          "type": "bool"
        }
      ],
      "name": "setRevealed",
      "outputs": [],
      "stateMutability": "nonpayable",
      "type": "function"
    },
    {
      "inputs": [
        {
          "internalType": "string",
          "name": "_baseuri",
          "type": "string"
        }
      ],
      "name": "setBaseURI",
      "outputs": [],
      "stateMutability": "nonpayable",
      "type": "function"
    },
    {
      "inputs": [
        {
          "internalType": "uint256",
          "name": "_tokenId",
          "type": "uint256"
        }
      ],
      "name": "tokenURI",
      "outputs": [
        {
          "internalType": "string",
          "name": "",
          "type": "string"
        }
      ],
      "stateMutability": "view",
      "type": "function"
    },
    {
      "inputs": [],
      "name": "withdrawAll",
      "outputs": [],
      "stateMutability": "nonpayable",
      "type": "function"
    },
    {
      "inputs": [],
      "name": "getPrice",
      "outputs": [
        {
          "internalType": "uint256",
          "name": "",
          "type": "uint256"
        }
      ],
      "stateMutability": "view",
      "type": "function"
    }
  ],
  "bytecode": "0x60806040526103e8600d55600e805473483d14d8fae52a19791c8e1d79eff31db29f437b6001600160a01b03199182168117909255600f805490911690911790553480156200004d57600080fd5b506040518060400160405280601f81526020017f5468652053686d75726673204f6666696369616c20436f6c6c656374696f6e008152506040518060400160405280600781526020016653484d5552465360c81b815250620000be620000b86200010d60201b60201c565b62000111565b8151620000d390600390602085019062000161565b508051620000e990600490602084019062000161565b50600060015550506009805460ff19908116909155600c8054909116905562000244565b3390565b600080546001600160a01b038381166001600160a01b0319831681178455604051919092169283917f8be0079c531659141344cd1fd0a4f28419497f9722a3daafe3b4186f6b6457e09190a35050565b8280546200016f9062000207565b90600052602060002090601f016020900481019282620001935760008555620001de565b82601f10620001ae57805160ff1916838001178555620001de565b82800160010185558215620001de579182015b82811115620001de578251825591602001919060010190620001c1565b50620001ec929150620001f0565b5090565b5b80821115620001ec5760008155600101620001f1565b600181811c908216806200021c57607f821691505b602082108114156200023e57634e487b7160e01b600052602260045260246000fd5b50919050565b6122b980620002546000396000f3fe6080604052600436106101cd5760003560e01c80638d9ce5e1116100f7578063b8919df311610095578063e0a8085311610064578063e0a80853146104e5578063e985e9c514610505578063f09351e61461054e578063f2fde38b1461056357600080fd5b8063b8919df314610476578063c76df80e1461048b578063c87b56dd1461049e578063cbccefb2146104be57600080fd5b806395d89b41116100d157806395d89b411461040c57806398d5fdca14610421578063a22cb46514610436578063b88d4fde1461045657600080fd5b80638d9ce5e1146103b95780638da5cb5b146103d957806390caedae146103f757600080fd5b806342842e0e1161016f5780636f8b44b01161013e5780636f8b44b01461034f57806370a082311461036f578063715018a61461038f578063853828b6146103a457600080fd5b806342842e0e146102dc57806355f804b3146102fc57806360e85cde1461031c5780636352211e1461032f57600080fd5b8063095ea7b3116101ab578063095ea7b31461026157806318160ddd1461028357806323b872dd146102a657806332cb6b0c146102c657600080fd5b806301ffc9a7146101d257806306fdde0314610207578063081812fc14610229575b600080fd5b3480156101de57600080fd5b506101f26101ed366004611f28565b610583565b60405190151581526020015b60405180910390f35b34801561021357600080fd5b5061021c6105d5565b6040516101fe91906120c6565b34801561023557600080fd5b50610249610244366004611fcd565b610667565b6040516001600160a01b0390911681526020016101fe565b34801561026d57600080fd5b5061028161027c366004611ee5565b6106ab565b005b34801561028f57600080fd5b50600254600154035b6040519081526020016101fe565b3480156102b257600080fd5b506102816102c1366004611dac565b610739565b3480156102d257600080fd5b50610298600d5481565b3480156102e857600080fd5b506102816102f7366004611dac565b610744565b34801561030857600080fd5b50610281610317366004611f60565b61075f565b61028161032a366004611fe5565b61079e565b34801561033b57600080fd5b5061024961034a366004611fcd565b610ac6565b34801561035b57600080fd5b5061028161036a366004611fcd565b610ad8565b34801561037b57600080fd5b5061029861038a366004611d60565b610b07565b34801561039b57600080fd5b50610281610b56565b3480156103b057600080fd5b50610281610b8c565b3480156103c557600080fd5b506102816103d4366004611f60565b610c4e565b3480156103e557600080fd5b506000546001600160a01b0316610249565b34801561040357600080fd5b50610281610c84565b34801561041857600080fd5b5061021c610cc5565b34801561042d57600080fd5b50610298610cd4565b34801561044257600080fd5b50610281610451366004611ebc565b610d84565b34801561046257600080fd5b50610281610471366004611de7565b610e1a565b34801561048257600080fd5b50610281610e6b565b610281610499366004611fe5565b610ea8565b3480156104aa57600080fd5b5061021c6104b9366004611fcd565b6110db565b3480156104ca57600080fd5b506009546104d89060ff1681565b6040516101fe919061209e565b3480156104f157600080fd5b50610281610500366004611f0e565b6111dd565b34801561051157600080fd5b506101f2610520366004611d7a565b6001600160a01b03918216600090815260086020908152604080832093909416825291909152205460ff1690565b34801561055a57600080fd5b5061028161121a565b34801561056f57600080fd5b5061028161057e366004611d60565b611258565b60006001600160e01b031982166380ac58cd60e01b14806105b457506001600160e01b03198216635b5e139f60e01b145b806105cf57506301ffc9a760e01b6001600160e01b03198316145b92915050565b6060600380546105e4906121c1565b80601f0160208091040260200160405190810160405280929190818152602001828054610610906121c1565b801561065d5780601f106106325761010080835404028352916020019161065d565b820191906000526020600020905b81548152906001019060200180831161064057829003601f168201915b5050505050905090565b6000610672826112f0565b61068f576040516333d1c03960e21b815260040160405180910390fd5b506000908152600760205260409020546001600160a01b031690565b60006106b682610ac6565b9050806001600160a01b0316836001600160a01b031614156106eb5760405163250fdee360e21b815260040160405180910390fd5b336001600160a01b0382161480159061070b57506107098133610520565b155b15610729576040516367d9dca160e11b815260040160405180910390fd5b61073483838361131c565b505050565b610734838383611378565b61073483838360405180602001604052806000815250610e1a565b6000546001600160a01b031633146107925760405162461bcd60e51b8152600401610789906120d9565b60405180910390fd5b610734600a8383611ca0565b3233146107ed5760405162461bcd60e51b815260206004820152601e60248201527f5468652063616c6c657220697320616e6f7468657220636f6e747261637400006044820152606401610789565b600160095460ff16600281111561081457634e487b7160e01b600052602160045260246000fd5b146108615760405162461bcd60e51b815260206004820152601f60248201527f57686974656c6973742053616c65206973206e6f7420616374697661746564006044820152606401610789565b600d5460025460015403106108de5760405162461bcd60e51b815260206004820152603c60248201527f57484954454c4953545f53414c453a20506c6561736520676f20746f2074686560448201527f204f70656e73656120746f20627579205468652053686d757266732e000000006064820152608401610789565b600d548160ff166108f26002546001540390565b6108fc919061210e565b11156109565760405162461bcd60e51b815260206004820152602360248201527f57484954454c4953545f53414c453a204d617820737570706c7920657863656560448201526219195960ea1b6064820152608401610789565b3360009081526010602052604090205460039061097790839060ff16612126565b60ff1611156109fd5760405162461bcd60e51b815260206004820152604660248201527f57484954454c4953545f53414c453a20596f752063616e206e6f74206765742060448201527f6d6f7265207468616e2033204e465473206f6e207468652057686974656c6973606482015265742053616c6560d01b608482015260a401610789565b610a1160ff8216662386f26fc1000061215f565b341015610a605760405162461bcd60e51b815260206004820181905260248201527f57484954454c4953545f53414c453a204e6f7420656e6f7567682066756e64736044820152606401610789565b3360009081526010602052604081208054839290610a8290849060ff16612126565b92506101000a81548160ff021916908360ff160217905550610aa7338260ff16611568565b610ac3610abe60ff8316662386f26fc1000061215f565b611586565b50565b6000610ad18261160d565b5192915050565b6000546001600160a01b03163314610b025760405162461bcd60e51b8152600401610789906120d9565b600d55565b60006001600160a01b038216610b30576040516323d3ad8160e21b815260040160405180910390fd5b506001600160a01b031660009081526006602052604090205467ffffffffffffffff1690565b6000546001600160a01b03163314610b805760405162461bcd60e51b8152600401610789906120d9565b610b8a6000611729565b565b6000546001600160a01b03163314610bb65760405162461bcd60e51b8152600401610789906120d9565b4780610c045760405162461bcd60e51b815260206004820181905260248201527f57495448445241573a204e6f2062616c616e636520696e20636f6e74726163746044820152606401610789565b6000610c11600a8361214b565b90506000610c1f828461217e565b600f54909150610c38906001600160a01b031683611779565b600e54610734906001600160a01b031682611779565b6000546001600160a01b03163314610c785760405162461bcd60e51b8152600401610789906120d9565b610734600b8383611ca0565b6000546001600160a01b03163314610cae5760405162461bcd60e51b8152600401610789906120d9565b600980546002919060ff19166001835b0217905550565b6060600480546105e4906121c1565b60008060095460ff166002811115610cfc57634e487b7160e01b600052602160045260246000fd5b1415610d3f5760405162461bcd60e51b815260206004820152601260248201527114d85b19481b9bdd081858dd1a5d985d195960721b6044820152606401610789565b600260095460ff166002811115610d6657634e487b7160e01b600052602160045260246000fd5b1415610d78575066470de4df82000090565b50662386f26fc1000090565b6001600160a01b038216331415610dae5760405163b06307db60e01b815260040160405180910390fd5b3360008181526008602090815260408083206001600160a01b03871680855290835292819020805460ff191686151590811790915590519081529192917f17307eab39ab6107e8899845ad3d59bd9653f200f220920489ca2b5937696c31910160405180910390a35050565b610e25848484611378565b6001600160a01b0383163b15158015610e475750610e458484848461181c565b155b15610e65576040516368d2bf6b60e11b815260040160405180910390fd5b50505050565b6000546001600160a01b03163314610e955760405162461bcd60e51b8152600401610789906120d9565b600980546001919060ff19168280610cbe565b323314610ef75760405162461bcd60e51b815260206004820152601e60248201527f5468652063616c6c657220697320616e6f7468657220636f6e747261637400006044820152606401610789565b600260095460ff166002811115610f1e57634e487b7160e01b600052602160045260246000fd5b14610f6b5760405162461bcd60e51b815260206004820152601c60248201527f5075626c69632053616c65206973206e6f7420616374697661746564000000006044820152606401610789565b600d546002546001540310610fe85760405162461bcd60e51b815260206004820152603960248201527f5055424c49435f53414c453a20506c6561736520676f20746f20746865204f7060448201527f656e73656120746f20627579205468652053686d757266732e000000000000006064820152608401610789565b600d548160ff16610ffc6002546001540390565b611006919061210e565b11156110545760405162461bcd60e51b815260206004820181905260248201527f5055424c49435f53414c453a204d617820737570706c792065786365656465646044820152606401610789565b61106860ff821666470de4df82000061215f565b3410156110b75760405162461bcd60e51b815260206004820181905260248201527f57484954454c4953545f53414c453a204e6f7420656e6f7567682066756e64736044820152606401610789565b6110c4338260ff16611568565b610ac3610abe60ff831666470de4df82000061215f565b60606110e6826112f0565b6111325760405162461bcd60e51b815260206004820152601f60248201527f55524920717565727920666f72206e6f6e6578697374656e7420746f6b656e006044820152606401610789565b600c5460ff1615611146576105cf82611914565b600b8054611153906121c1565b80601f016020809104026020016040519081016040528092919081815260200182805461117f906121c1565b80156111cc5780601f106111a1576101008083540402835291602001916111cc565b820191906000526020600020905b8154815290600101906020018083116111af57829003601f168201915b50505050509050919050565b919050565b6000546001600160a01b031633146112075760405162461bcd60e51b8152600401610789906120d9565b600c805460ff1916911515919091179055565b6000546001600160a01b031633146112445760405162461bcd60e51b8152600401610789906120d9565b600980546000919060ff1916600183610cbe565b6000546001600160a01b031633146112825760405162461bcd60e51b8152600401610789906120d9565b6001600160a01b0381166112e75760405162461bcd60e51b815260206004820152602660248201527f4f776e61626c653a206e6577206f776e657220697320746865207a65726f206160448201526564647265737360d01b6064820152608401610789565b610ac381611729565b6000600154821080156105cf575050600090815260056020526040902054600160e01b900460ff161590565b60008281526007602052604080822080546001600160a01b0319166001600160a01b0387811691821790925591518593918516917f8c5be1e5ebec7d5bd14f71427d1e84f3dd0314c0f7b2291e5b200ac8c7c3b92591a4505050565b60006113838261160d565b9050836001600160a01b031681600001516001600160a01b0316146113ba5760405162a1148160e81b815260040160405180910390fd5b6000336001600160a01b03861614806113d857506113d88533610520565b806113f35750336113e884610667565b6001600160a01b0316145b90508061141357604051632ce44b5f60e11b815260040160405180910390fd5b6001600160a01b03841661143a57604051633a954ecd60e21b815260040160405180910390fd5b6114466000848761131c565b6001600160a01b038581166000908152600660209081526040808320805467ffffffffffffffff1980821667ffffffffffffffff92831660001901831617909255898616808652838620805493841693831660019081018416949094179055898652600590945282852080546001600160e01b031916909417600160a01b4290921691909102178355870180845292208054919390911661151c57600154821461151c578054602086015167ffffffffffffffff16600160a01b026001600160e01b03199091166001600160a01b038a16171781555b50505082846001600160a01b0316866001600160a01b03167fddf252ad1be2c89b69c2b068fc378daa952ba7f163c4a11628f55a4df523b3ef60405160405180910390a45b5050505050565b611582828260405180602001604052806000815250611999565b5050565b803410156115cf5760405162461bcd60e51b81526020600482015260166024820152752732b2b2103a379039b2b7321036b7b9329022aa241760511b6044820152606401610789565b80341115610ac357336108fc6115e5833461217e565b6040518115909202916000818181858888f19350505050158015611582573d6000803e3d6000fd5b60408051606081018252600080825260208201819052918101919091528160015481101561171057600081815260056020908152604091829020825160608101845290546001600160a01b0381168252600160a01b810467ffffffffffffffff1692820192909252600160e01b90910460ff1615159181018290529061170e5780516001600160a01b0316156116a4579392505050565b5060001901600081815260056020908152604091829020825160608101845290546001600160a01b038116808352600160a01b820467ffffffffffffffff1693830193909352600160e01b900460ff1615159281019290925215611709579392505050565b6116a4565b505b604051636f96cda160e11b815260040160405180910390fd5b600080546001600160a01b038381166001600160a01b0319831681178455604051919092169283917f8be0079c531659141344cd1fd0a4f28419497f9722a3daafe3b4186f6b6457e09190a35050565b6000826001600160a01b03168260405160006040518083038185875af1925050503d80600081146117c6576040519150601f19603f3d011682016040523d82523d6000602084013e6117cb565b606091505b50509050806107345760405162461bcd60e51b815260206004820152601a60248201527f57495448445241573a205472616e73666572206661696c65642e0000000000006044820152606401610789565b604051630a85bd0160e11b81526000906001600160a01b0385169063150b7a0290611851903390899088908890600401612061565b602060405180830381600087803b15801561186b57600080fd5b505af192505050801561189b575060408051601f3d908101601f1916820190925261189891810190611f44565b60015b6118f6573d8080156118c9576040519150601f19603f3d011682016040523d82523d6000602084013e6118ce565b606091505b5080516118ee576040516368d2bf6b60e11b815260040160405180910390fd5b805181602001fd5b6001600160e01b031916630a85bd0160e11b1490505b949350505050565b606061191f826112f0565b61193c57604051630a14c4b560e41b815260040160405180910390fd5b60006119466119a6565b90508051600014156119675760405180602001604052806000815250611992565b80611971846119b5565b604051602001611982929190612032565b6040516020818303038152906040525b9392505050565b6107348383836001611acf565b6060600a80546105e4906121c1565b6060816119d95750506040805180820190915260018152600360fc1b602082015290565b8160005b8115611a0357806119ed816121fc565b91506119fc9050600a8361214b565b91506119dd565b60008167ffffffffffffffff811115611a2c57634e487b7160e01b600052604160045260246000fd5b6040519080825280601f01601f191660200182016040528015611a56576020820181803683370190505b5090505b841561190c57611a6b60018361217e565b9150611a78600a86612217565b611a8390603061210e565b60f81b818381518110611aa657634e487b7160e01b600052603260045260246000fd5b60200101906001600160f81b031916908160001a905350611ac8600a8661214b565b9450611a5a565b6001546001600160a01b038516611af857604051622e076360e81b815260040160405180910390fd5b83611b165760405163b562e8dd60e01b815260040160405180910390fd5b6001600160a01b038516600081815260066020908152604080832080546fffffffffffffffffffffffffffffffff19811667ffffffffffffffff8083168c0181169182176801000000000000000067ffffffffffffffff1990941690921783900481168c01811690920217909155858452600590925290912080546001600160e01b031916909217600160a01b429092169190910217905580808501838015611bc857506001600160a01b0387163b15155b15611c51575b60405182906001600160a01b038916906000907fddf252ad1be2c89b69c2b068fc378daa952ba7f163c4a11628f55a4df523b3ef908290a4611c19600088848060010195508861181c565b611c36576040516368d2bf6b60e11b815260040160405180910390fd5b80821415611bce578260015414611c4c57600080fd5b611c97565b5b6040516001830192906001600160a01b038916906000907fddf252ad1be2c89b69c2b068fc378daa952ba7f163c4a11628f55a4df523b3ef908290a480821415611c52575b50600155611561565b828054611cac906121c1565b90600052602060002090601f016020900481019282611cce5760008555611d14565b82601f10611ce75782800160ff19823516178555611d14565b82800160010185558215611d14579182015b82811115611d14578235825591602001919060010190611cf9565b50611d20929150611d24565b5090565b5b80821115611d205760008155600101611d25565b80356001600160a01b03811681146111d857600080fd5b803580151581146111d857600080fd5b600060208284031215611d71578081fd5b61199282611d39565b60008060408385031215611d8c578081fd5b611d9583611d39565b9150611da360208401611d39565b90509250929050565b600080600060608486031215611dc0578081fd5b611dc984611d39565b9250611dd760208501611d39565b9150604084013590509250925092565b60008060008060808587031215611dfc578081fd5b611e0585611d39565b9350611e1360208601611d39565b925060408501359150606085013567ffffffffffffffff80821115611e36578283fd5b818701915087601f830112611e49578283fd5b813581811115611e5b57611e5b612257565b604051601f8201601f19908116603f01168101908382118183101715611e8357611e83612257565b816040528281528a6020848701011115611e9b578586fd5b82602086016020830137918201602001949094529598949750929550505050565b60008060408385031215611ece578182fd5b611ed783611d39565b9150611da360208401611d50565b60008060408385031215611ef7578182fd5b611f0083611d39565b946020939093013593505050565b600060208284031215611f1f578081fd5b61199282611d50565b600060208284031215611f39578081fd5b81356119928161226d565b600060208284031215611f55578081fd5b81516119928161226d565b60008060208385031215611f72578182fd5b823567ffffffffffffffff80821115611f89578384fd5b818501915085601f830112611f9c578384fd5b813581811115611faa578485fd5b866020828501011115611fbb578485fd5b60209290920196919550909350505050565b600060208284031215611fde578081fd5b5035919050565b600060208284031215611ff6578081fd5b813560ff81168114611992578182fd5b6000815180845261201e816020860160208601612195565b601f01601f19169290920160200192915050565b60008351612044818460208801612195565b835190830190612058818360208801612195565b01949350505050565b6001600160a01b038581168252841660208201526040810183905260806060820181905260009061209490830184612006565b9695505050505050565b60208101600383106120c057634e487b7160e01b600052602160045260246000fd5b91905290565b6020815260006119926020830184612006565b6020808252818101527f4f776e61626c653a2063616c6c6572206973206e6f7420746865206f776e6572604082015260600190565b600082198211156121215761212161222b565b500190565b600060ff821660ff84168060ff038211156121435761214361222b565b019392505050565b60008261215a5761215a612241565b500490565b60008160001904831182151516156121795761217961222b565b500290565b6000828210156121905761219061222b565b500390565b60005b838110156121b0578181015183820152602001612198565b83811115610e655750506000910152565b600181811c908216806121d557607f821691505b602082108114156121f657634e487b7160e01b600052602260045260246000fd5b50919050565b60006000198214156122105761221061222b565b5060010190565b60008261222657612226612241565b500690565b634e487b7160e01b600052601160045260246000fd5b634e487b7160e01b600052601260045260246000fd5b634e487b7160e01b600052604160045260246000fd5b6001600160e01b031981168114610ac357600080fdfea26469706673582212200385c30d72b668d14167000bc3d4dd123a0f8bb9abeefe8769f313a16f62fc1464736f6c63430008040033",
  "immutableReferences": {},
  "source": "// SPDX-License-Identifier: MIT\n\n//   /$$$$$$$$ /$$                        /$$$$$$  /$$                                          /$$$$$$                 /$$$$$$   /$$$$$$   /$$$$$$  /$$           /$$           /$$        /$$$$$$            /$$ /$$                       /$$     /$$                    \n//  |__  $$__/| $$                       /$$__  $$| $$                                         /$$__  $$               /$$__  $$ /$$__  $$ /$$__  $$|__/          |__/          | $$       /$$__  $$          | $$| $$                      | $$    |__/                    \n//     | $$   | $$$$$$$   /$$$$$$       | $$  \\__/| $$$$$$$  /$$$$$$/$$$$  /$$   /$$  /$$$$$$ | $$  \\__//$$$$$$$      | $$  \\ $$| $$  \\__/| $$  \\__/ /$$  /$$$$$$$ /$$  /$$$$$$ | $$      | $$  \\__/  /$$$$$$ | $$| $$  /$$$$$$   /$$$$$$$ /$$$$$$   /$$  /$$$$$$  /$$$$$$$ \n//     | $$   | $$__  $$ /$$__  $$      |  $$$$$$ | $$__  $$| $$_  $$_  $$| $$  | $$ /$$__  $$| $$$$   /$$_____/      | $$  | $$| $$$$    | $$$$    | $$ /$$_____/| $$ |____  $$| $$      | $$       /$$__  $$| $$| $$ /$$__  $$ /$$_____/|_  $$_/  | $$ /$$__  $$| $$__  $$\n//     | $$   | $$  \\ $$| $$$$$$$$       \\____  $$| $$  \\ $$| $$ \\ $$ \\ $$| $$  | $$| $$  \\__/| $$_/  |  $$$$$$       | $$  | $$| $$_/    | $$_/    | $$| $$      | $$  /$$$$$$$| $$      | $$      | $$  \\ $$| $$| $$| $$$$$$$$| $$        | $$    | $$| $$  \\ $$| $$  \\ $$\n//     | $$   | $$  | $$| $$_____/       /$$  \\ $$| $$  | $$| $$ | $$ | $$| $$  | $$| $$      | $$     \\____  $$      | $$  | $$| $$      | $$      | $$| $$      | $$ /$$__  $$| $$      | $$    $$| $$  | $$| $$| $$| $$_____/| $$        | $$ /$$| $$| $$  | $$| $$  | $$\n//     | $$   | $$  | $$|  $$$$$$$      |  $$$$$$/| $$  | $$| $$ | $$ | $$|  $$$$$$/| $$      | $$     /$$$$$$$/      |  $$$$$$/| $$      | $$      | $$|  $$$$$$$| $$|  $$$$$$$| $$      |  $$$$$$/|  $$$$$$/| $$| $$|  $$$$$$$|  $$$$$$$  |  $$$$/| $$|  $$$$$$/| $$  | $$\n//     |__/   |__/  |__/ \\_______/       \\______/ |__/  |__/|__/ |__/ |__/ \\______/ |__/      |__/    |_______/        \\______/ |__/      |__/      |__/ \\_______/|__/ \\_______/|__/       \\______/  \\______/ |__/|__/ \\_______/ \\_______/   \\___/  |__/ \\______/ |__/  |__/\n//\n//    The Shmurfs are a collection of 1,000, 3D amazing PFP NFT's that offer real long term value!\n//    This value proposition includes merchandise, Tokenomics and series 2 value by way of our $SHMURF Tokens and much more! \n//\n//\n\npragma solidity ^0.8.4;\n\nimport \"@openzeppelin/contracts/access/Ownable.sol\";\nimport \"./ERC721A.sol\";\n\ncontract TheShmurfs is Ownable, ERC721A {\n\n  enum Step {\n    Inactive,\n    WhitelistSale,\n    PublicSale\n  }\n\n  Step public sellingStep;\n\n  string private baseURI;\n  string private unrevealedImageURL;\n  bool private revealed;\n\n  uint public MAX_SUPPLY          = 1000;\n  uint private constant PRICE_WHITELIST     = 0.01 ether;\n  uint private constant PRICE_PUBLIC        = 0.02 ether;\n  uint private constant MAX_WHITELIST_BATCH = 3;\n\n  address private fundWallet    = payable(0x483D14D8FAe52A19791C8E1d79eFf31db29F437b); // Owner Fund Wallet Address\n  address private devOneWallet  = payable(0x483D14D8FAe52A19791C8E1d79eFf31db29F437b); // Developer Wallet Address\n\n  mapping(address => uint8) private whitelistBuyList;\n\n  constructor() ERC721A(\"The Shmurfs Official Collection\", \"SHMURFS\") {\n    sellingStep = Step.Inactive;\n    revealed = false;\n  }\n\n  modifier callerIsUser() {\n    require(tx.origin == msg.sender, \"The caller is another contract\");\n    _;\n  }\n\n  modifier whitelistSaleIsOpen() {\n    require(sellingStep == Step.WhitelistSale, \"Whitelist Sale is not activated\");\n    _;\n  }\n\n  modifier publicSaleIsOpen() {\n    require(sellingStep == Step.PublicSale, \"Public Sale is not activated\");\n    _;\n  }\n\n  function whitelistMint(uint8 quantity) external payable callerIsUser whitelistSaleIsOpen {\n    require(totalSupply() < MAX_SUPPLY, \"WHITELIST_SALE: Please go to the Opensea to buy The Shmurfs.\");\n    require(totalSupply() + quantity <= MAX_SUPPLY, \"WHITELIST_SALE: Max supply exceeded\");\n    require(whitelistBuyList[msg.sender] + quantity <= MAX_WHITELIST_BATCH, \"WHITELIST_SALE: You can not get more than 3 NFTs on the Whitelist Sale\");\n    require(msg.value >= PRICE_WHITELIST * quantity, \"WHITELIST_SALE: Not enough funds\");\n\n    whitelistBuyList[msg.sender] += quantity;\n    _safeMint(msg.sender, quantity);\n\n    refundIfOver(PRICE_WHITELIST * quantity);\n  }\n\n  function publicSaleMint(uint8 quantity) external payable callerIsUser publicSaleIsOpen{\n    require(totalSupply() < MAX_SUPPLY, \"PUBLIC_SALE: Please go to the Opensea to buy The Shmurfs.\");\n    require(totalSupply() + quantity <= MAX_SUPPLY, \"PUBLIC_SALE: Max supply exceeded\");\n    require(msg.value >= PRICE_PUBLIC * quantity, \"WHITELIST_SALE: Not enough funds\");\n\n    _safeMint(msg.sender, quantity);\n    refundIfOver(PRICE_PUBLIC * quantity);\n  }\n\n  function setStepAsInactive() external onlyOwner {\n    sellingStep = Step.Inactive;\n  }\n\n  function setStepAsWhitelistSale() external onlyOwner {\n    sellingStep = Step.WhitelistSale;\n  }\n\n  function setStepAsPublicSale() external onlyOwner {\n    sellingStep = Step.PublicSale;\n  }\n\n  function setMaxSupply(uint max_) external onlyOwner {\n    MAX_SUPPLY = max_;\n  }\n  \n  // metadata URI\n  function setUnrevealedImageURL(string calldata _imageURL) external onlyOwner {\n    unrevealedImageURL = _imageURL;\n  }\n\n  function setRevealed(bool _reveal) external onlyOwner {\n    revealed = _reveal;\n  }\n\n  function setBaseURI(string calldata _baseuri) external onlyOwner {\n    baseURI = _baseuri;\n  }\n\n  function _baseURI() internal view override returns (string memory) {\n    return baseURI;\n  }\n\n  function tokenURI(uint _tokenId) public view override returns (string memory) {\n    require(_exists(_tokenId), \"URI query for nonexistent token\");\n\n    if (revealed)\n      return super.tokenURI(_tokenId);\n    else\n      return unrevealedImageURL;\n  }\n\n  // fund\n  function withdrawAll() external onlyOwner {\n    uint totalBalance = address(this).balance;\n    require(totalBalance > 0, \"WITHDRAW: No balance in contract\");\n\n    uint devOneBalance = totalBalance / 10; // 10% of total sale\n    uint ownerBalance = totalBalance - devOneBalance; // 90% of total sale\n\n    _withdraw(devOneWallet, devOneBalance);\n    _withdraw(fundWallet, ownerBalance);\n  }\n\n  function _withdraw(address _address, uint _amount) private {\n    (bool success, ) = _address.call{value: _amount}(\"\");\n\n    require(success, \"WITHDRAW: Transfer failed.\");\n  }\n\n  function refundIfOver(uint price) private {\n    require(msg.value >= price, \"Need to send more ETH.\");\n\n    if (msg.value > price) {\n      payable(msg.sender).transfer(msg.value - price);\n    }\n  }\n\n  function getPrice() public view returns (uint) {\n    require(sellingStep != Step.Inactive, \"Sale not activated\");\n    if (sellingStep == Step.PublicSale)\n      return PRICE_PUBLIC;\n    else\n      return PRICE_WHITELIST;\n  }\n}",
  "sourcePath": "/root/tests/smurfs-minting-website/contracts/TheShmurfs.sol",
  "compiler": {
    "name": "solc",
    "version": "0.8.4+commit.c7e474f2.Emscripten.clang"
  },
  "schemaVersion": "3.4.6",
  "updatedAt": "2022-05-02T11:02:20.032Z",
  "devdoc": {
    "kind": "dev",
    "methods": {
      "approve(address,uint256)": {
        "details": "See {IERC721-approve}."
      },
      "balanceOf(address)": {
        "details": "See {IERC721-balanceOf}."
      },
      "getApproved(uint256)": {
        "details": "See {IERC721-getApproved}."
      },
      "isApprovedForAll(address,address)": {
        "details": "See {IERC721-isApprovedForAll}."
      },
      "name()": {
        "details": "See {IERC721Metadata-name}."
      },
      "owner()": {
        "details": "Returns the address of the current owner."
      },
      "ownerOf(uint256)": {
        "details": "See {IERC721-ownerOf}."
      },
      "renounceOwnership()": {
        "details": "Leaves the contract without owner. It will not be possible to call `onlyOwner` functions anymore. Can only be called by the current owner. NOTE: Renouncing ownership will leave the contract without an owner, thereby removing any functionality that is only available to the owner."
      },
      "safeTransferFrom(address,address,uint256)": {
        "details": "See {IERC721-safeTransferFrom}."
      },
      "safeTransferFrom(address,address,uint256,bytes)": {
        "details": "See {IERC721-safeTransferFrom}."
      },
      "setApprovalForAll(address,bool)": {
        "details": "See {IERC721-setApprovalForAll}."
      },
      "supportsInterface(bytes4)": {
        "details": "See {IERC165-supportsInterface}."
      },
      "symbol()": {
        "details": "See {IERC721Metadata-symbol}."
      },
      "totalSupply()": {
        "details": "Burned tokens are calculated here, use _totalMinted() if you want to count just minted tokens."
      },
      "transferFrom(address,address,uint256)": {
        "details": "See {IERC721-transferFrom}."
      },
      "transferOwnership(address)": {
        "details": "Transfers ownership of the contract to a new account (`newOwner`). Can only be called by the current owner."
      }
    },
    "version": 1
  },
  "userdoc": {
    "kind": "user",
    "methods": {},
    "version": 1
  }
}